{
  "_format": "hh-sol-artifact-1",
  "contractName": "GoldFinchAcademyParticipantNFT",
  "sourceName": "contracts/GoldFinchAcademyParticipantNFT.sol",
  "abi": [
    {
      "inputs": [
        {
          "internalType": "string",
          "name": "name",
          "type": "string"
        },
        {
          "internalType": "string",
          "name": "symbol",
          "type": "string"
        },
        {
          "internalType": "bytes32",
          "name": "merkleroot",
          "type": "bytes32"
        }
      ],
      "stateMutability": "nonpayable",
      "type": "constructor"
    },
    {
      "anonymous": false,
      "inputs": [
        {
          "indexed": true,
          "internalType": "address",
          "name": "owner",
          "type": "address"
        },
        {
          "indexed": true,
          "internalType": "address",
          "name": "approved",
          "type": "address"
        },
        {
          "indexed": true,
          "internalType": "uint256",
          "name": "tokenId",
          "type": "uint256"
        }
      ],
      "name": "Approval",
      "type": "event"
    },
    {
      "anonymous": false,
      "inputs": [
        {
          "indexed": true,
          "internalType": "address",
          "name": "owner",
          "type": "address"
        },
        {
          "indexed": true,
          "internalType": "address",
          "name": "operator",
          "type": "address"
        },
        {
          "indexed": false,
          "internalType": "bool",
          "name": "approved",
          "type": "bool"
        }
      ],
      "name": "ApprovalForAll",
      "type": "event"
    },
    {
      "anonymous": false,
      "inputs": [
        {
          "indexed": true,
          "internalType": "address",
          "name": "from",
          "type": "address"
        },
        {
          "indexed": true,
          "internalType": "address",
          "name": "to",
          "type": "address"
        },
        {
          "indexed": true,
          "internalType": "uint256",
          "name": "tokenId",
          "type": "uint256"
        }
      ],
      "name": "Transfer",
      "type": "event"
    },
    {
      "inputs": [
        {
          "internalType": "address",
          "name": "to",
          "type": "address"
        },
        {
          "internalType": "uint256",
          "name": "tokenId",
          "type": "uint256"
        }
      ],
      "name": "approve",
      "outputs": [],
      "stateMutability": "nonpayable",
      "type": "function"
    },
    {
      "inputs": [
        {
          "internalType": "address",
          "name": "owner",
          "type": "address"
        }
      ],
      "name": "balanceOf",
      "outputs": [
        {
          "internalType": "uint256",
          "name": "",
          "type": "uint256"
        }
      ],
      "stateMutability": "view",
      "type": "function"
    },
    {
      "inputs": [
        {
          "internalType": "uint256",
          "name": "tokenId",
          "type": "uint256"
        }
      ],
      "name": "getApproved",
      "outputs": [
        {
          "internalType": "address",
          "name": "",
          "type": "address"
        }
      ],
      "stateMutability": "view",
      "type": "function"
    },
    {
      "inputs": [
        {
          "internalType": "address",
          "name": "owner",
          "type": "address"
        },
        {
          "internalType": "address",
          "name": "operator",
          "type": "address"
        }
      ],
      "name": "isApprovedForAll",
      "outputs": [
        {
          "internalType": "bool",
          "name": "",
          "type": "bool"
        }
      ],
      "stateMutability": "view",
      "type": "function"
    },
    {
      "inputs": [],
      "name": "name",
      "outputs": [
        {
          "internalType": "string",
          "name": "",
          "type": "string"
        }
      ],
      "stateMutability": "view",
      "type": "function"
    },
    {
      "inputs": [
        {
          "internalType": "uint256",
          "name": "tokenId",
          "type": "uint256"
        }
      ],
      "name": "ownerOf",
      "outputs": [
        {
          "internalType": "address",
          "name": "",
          "type": "address"
        }
      ],
      "stateMutability": "view",
      "type": "function"
    },
    {
      "inputs": [
        {
          "internalType": "address",
          "name": "account",
          "type": "address"
        },
        {
          "internalType": "uint256",
          "name": "tokenId",
          "type": "uint256"
        },
        {
          "internalType": "bytes32[]",
          "name": "proof",
          "type": "bytes32[]"
        }
      ],
      "name": "redeem",
      "outputs": [],
      "stateMutability": "nonpayable",
      "type": "function"
    },
    {
      "inputs": [],
      "name": "root",
      "outputs": [
        {
          "internalType": "bytes32",
          "name": "",
          "type": "bytes32"
        }
      ],
      "stateMutability": "view",
      "type": "function"
    },
    {
      "inputs": [
        {
          "internalType": "address",
          "name": "from",
          "type": "address"
        },
        {
          "internalType": "address",
          "name": "to",
          "type": "address"
        },
        {
          "internalType": "uint256",
          "name": "tokenId",
          "type": "uint256"
        }
      ],
      "name": "safeTransferFrom",
      "outputs": [],
      "stateMutability": "nonpayable",
      "type": "function"
    },
    {
      "inputs": [
        {
          "internalType": "address",
          "name": "from",
          "type": "address"
        },
        {
          "internalType": "address",
          "name": "to",
          "type": "address"
        },
        {
          "internalType": "uint256",
          "name": "tokenId",
          "type": "uint256"
        },
        {
          "internalType": "bytes",
          "name": "_data",
          "type": "bytes"
        }
      ],
      "name": "safeTransferFrom",
      "outputs": [],
      "stateMutability": "nonpayable",
      "type": "function"
    },
    {
      "inputs": [
        {
          "internalType": "address",
          "name": "operator",
          "type": "address"
        },
        {
          "internalType": "bool",
          "name": "approved",
          "type": "bool"
        }
      ],
      "name": "setApprovalForAll",
      "outputs": [],
      "stateMutability": "nonpayable",
      "type": "function"
    },
    {
      "inputs": [
        {
          "internalType": "bytes4",
          "name": "interfaceId",
          "type": "bytes4"
        }
      ],
      "name": "supportsInterface",
      "outputs": [
        {
          "internalType": "bool",
          "name": "",
          "type": "bool"
        }
      ],
      "stateMutability": "view",
      "type": "function"
    },
    {
      "inputs": [],
      "name": "symbol",
      "outputs": [
        {
          "internalType": "string",
          "name": "",
          "type": "string"
        }
      ],
      "stateMutability": "view",
      "type": "function"
    },
    {
      "inputs": [
        {
          "internalType": "uint256",
          "name": "tokenId",
          "type": "uint256"
        }
      ],
      "name": "tokenURI",
      "outputs": [
        {
          "internalType": "string",
          "name": "",
          "type": "string"
        }
      ],
      "stateMutability": "view",
      "type": "function"
    },
    {
      "inputs": [
        {
          "internalType": "address",
          "name": "from",
          "type": "address"
        },
        {
          "internalType": "address",
          "name": "to",
          "type": "address"
        },
        {
          "internalType": "uint256",
          "name": "tokenId",
          "type": "uint256"
        }
      ],
      "name": "transferFrom",
      "outputs": [],
      "stateMutability": "nonpayable",
      "type": "function"
    }
  ],
  "bytecode": "0x60a06040523480156200001157600080fd5b5060405162002cc138038062002cc18339818101604052810190620000379190620001b7565b82828160009080519060200190620000519291906200007e565b5080600190805190602001906200006a9291906200007e565b505050806080818152505050505062000394565b8280546200008c90620002e6565b90600052602060002090601f016020900481019282620000b05760008555620000fc565b82601f10620000cb57805160ff1916838001178555620000fc565b82800160010185558215620000fc579182015b82811115620000fb578251825591602001919060010190620000de565b5b5090506200010b91906200010f565b5090565b5b808211156200012a57600081600090555060010162000110565b5090565b6000620001456200013f8462000273565b6200023f565b9050828152602081018484840111156200015e57600080fd5b6200016b848285620002b0565b509392505050565b60008151905062000184816200037a565b92915050565b600082601f8301126200019c57600080fd5b8151620001ae8482602086016200012e565b91505092915050565b600080600060608486031215620001cd57600080fd5b600084015167ffffffffffffffff811115620001e857600080fd5b620001f6868287016200018a565b935050602084015167ffffffffffffffff8111156200021457600080fd5b62000222868287016200018a565b9250506040620002358682870162000173565b9150509250925092565b6000604051905081810181811067ffffffffffffffff821117156200026957620002686200034b565b5b8060405250919050565b600067ffffffffffffffff8211156200029157620002906200034b565b5b601f19601f8301169050602081019050919050565b6000819050919050565b60005b83811015620002d0578082015181840152602081019050620002b3565b83811115620002e0576000848401525b50505050565b60006002820490506001821680620002ff57607f821691505b602082108114156200031657620003156200031c565b5b50919050565b7f4e487b7100000000000000000000000000000000000000000000000000000000600052602260045260246000fd5b7f4e487b7100000000000000000000000000000000000000000000000000000000600052604160045260246000fd5b6200038581620002a6565b81146200039157600080fd5b50565b60805161290a620003b760003960008181610c9e0152610e92015261290a6000f3fe608060405234801561001057600080fd5b50600436106100f55760003560e01c80636352211e11610097578063b88d4fde11610066578063b88d4fde14610282578063c87b56dd1461029e578063e985e9c5146102ce578063ebf0c717146102fe576100f5565b80636352211e146101e857806370a082311461021857806395d89b4114610248578063a22cb46514610266576100f5565b8063095ea7b3116100d3578063095ea7b31461017857806314132f481461019457806323b872dd146101b057806342842e0e146101cc576100f5565b806301ffc9a7146100fa57806306fdde031461012a578063081812fc14610148575b600080fd5b610114600480360381019061010f9190611a55565b61031c565b60405161012191906121e4565b60405180910390f35b6101326103fe565b60405161013f919061221a565b60405180910390f35b610162600480360381019061015d9190611aa7565b610490565b60405161016f919061217d565b60405180910390f35b610192600480360381019061018d91906119ad565b610515565b005b6101ae60048036038101906101a991906119e9565b61062d565b005b6101ca60048036038101906101c591906118a7565b6106d0565b005b6101e660048036038101906101e191906118a7565b610730565b005b61020260048036038101906101fd9190611aa7565b610750565b60405161020f919061217d565b60405180910390f35b610232600480360381019061022d9190611842565b610802565b60405161023f919061241c565b60405180910390f35b6102506108ba565b60405161025d919061221a565b60405180910390f35b610280600480360381019061027b9190611971565b61094c565b005b61029c600480360381019061029791906118f6565b610acd565b005b6102b860048036038101906102b39190611aa7565b610b2f565b6040516102c5919061221a565b60405180910390f35b6102e860048036038101906102e3919061186b565b610c08565b6040516102f591906121e4565b60405180910390f35b610306610c9c565b60405161031391906121ff565b60405180910390f35b60007f80ac58cd000000000000000000000000000000000000000000000000000000007bffffffffffffffffffffffffffffffffffffffffffffffffffffffff1916827bffffffffffffffffffffffffffffffffffffffffffffffffffffffff191614806103e757507f5b5e139f000000000000000000000000000000000000000000000000000000007bffffffffffffffffffffffffffffffffffffffffffffffffffffffff1916827bffffffffffffffffffffffffffffffffffffffffffffffffffffffff1916145b806103f757506103f682610cc0565b5b9050919050565b60606000805461040d9061264b565b80601f01602080910402602001604051908101604052809291908181526020018280546104399061264b565b80156104865780601f1061045b57610100808354040283529160200191610486565b820191906000526020600020905b81548152906001019060200180831161046957829003601f168201915b5050505050905090565b600061049b82610d2a565b6104da576040517f08c379a00000000000000000000000000000000000000000000000000000000081526004016104d19061235c565b60405180910390fd5b6004600083815260200190815260200160002060009054906101000a900473ffffffffffffffffffffffffffffffffffffffff169050919050565b600061052082610750565b90508073ffffffffffffffffffffffffffffffffffffffff168373ffffffffffffffffffffffffffffffffffffffff161415610591576040517f08c379a0000000000000000000000000000000000000000000000000000000008152600401610588906123dc565b60405180910390fd5b8073ffffffffffffffffffffffffffffffffffffffff166105b0610d96565b73ffffffffffffffffffffffffffffffffffffffff1614806105df57506105de816105d9610d96565b610c08565b5b61061e576040517f08c379a0000000000000000000000000000000000000000000000000000000008152600401610615906122dc565b60405180910390fd5b6106288383610d9e565b505050565b61068161063a8585610e57565b838380806020026020016040519081016040528093929190818152602001838360200280828437600081840152601f19601f82011690508083019250505050505050610e8a565b6106c0576040517f08c379a00000000000000000000000000000000000000000000000000000000081526004016106b79061237c565b60405180910390fd5b6106ca8484610ebf565b50505050565b6106e16106db610d96565b82610edd565b610720576040517f08c379a0000000000000000000000000000000000000000000000000000000008152600401610717906123fc565b60405180910390fd5b61072b838383610fbb565b505050565b61074b83838360405180602001604052806000815250610acd565b505050565b6000806002600084815260200190815260200160002060009054906101000a900473ffffffffffffffffffffffffffffffffffffffff169050600073ffffffffffffffffffffffffffffffffffffffff168173ffffffffffffffffffffffffffffffffffffffff1614156107f9576040517f08c379a00000000000000000000000000000000000000000000000000000000081526004016107f09061231c565b60405180910390fd5b80915050919050565b60008073ffffffffffffffffffffffffffffffffffffffff168273ffffffffffffffffffffffffffffffffffffffff161415610873576040517f08c379a000000000000000000000000000000000000000000000000000000000815260040161086a906122fc565b60405180910390fd5b600360008373ffffffffffffffffffffffffffffffffffffffff1673ffffffffffffffffffffffffffffffffffffffff168152602001908152602001600020549050919050565b6060600180546108c99061264b565b80601f01602080910402602001604051908101604052809291908181526020018280546108f59061264b565b80156109425780601f1061091757610100808354040283529160200191610942565b820191906000526020600020905b81548152906001019060200180831161092557829003601f168201915b5050505050905090565b610954610d96565b73ffffffffffffffffffffffffffffffffffffffff168273ffffffffffffffffffffffffffffffffffffffff1614156109c2576040517f08c379a00000000000000000000000000000000000000000000000000000000081526004016109b99061229c565b60405180910390fd5b80600560006109cf610d96565b73ffffffffffffffffffffffffffffffffffffffff1673ffffffffffffffffffffffffffffffffffffffff16815260200190815260200160002060008473ffffffffffffffffffffffffffffffffffffffff1673ffffffffffffffffffffffffffffffffffffffff16815260200190815260200160002060006101000a81548160ff0219169083151502179055508173ffffffffffffffffffffffffffffffffffffffff16610a7c610d96565b73ffffffffffffffffffffffffffffffffffffffff167f17307eab39ab6107e8899845ad3d59bd9653f200f220920489ca2b5937696c3183604051610ac191906121e4565b60405180910390a35050565b610ade610ad8610d96565b83610edd565b610b1d576040517f08c379a0000000000000000000000000000000000000000000000000000000008152600401610b14906123fc565b60405180910390fd5b610b2984848484611217565b50505050565b6060610b3a82610d2a565b610b79576040517f08c379a0000000000000000000000000000000000000000000000000000000008152600401610b70906123bc565b60405180910390fd5b6001620f424083610b8a9190612526565b1415610bb057604051806080016040528060508152602001612885605091399050610c03565b6002620f424083610bc19190612526565b1415610be757604051806080016040528060508152602001612835605091399050610c03565b6040518060800160405280605081526020016128856050913990505b919050565b6000600560008473ffffffffffffffffffffffffffffffffffffffff1673ffffffffffffffffffffffffffffffffffffffff16815260200190815260200160002060008373ffffffffffffffffffffffffffffffffffffffff1673ffffffffffffffffffffffffffffffffffffffff16815260200190815260200160002060009054906101000a900460ff16905092915050565b7f000000000000000000000000000000000000000000000000000000000000000081565b60007f01ffc9a7000000000000000000000000000000000000000000000000000000007bffffffffffffffffffffffffffffffffffffffffffffffffffffffff1916827bffffffffffffffffffffffffffffffffffffffffffffffffffffffff1916149050919050565b60008073ffffffffffffffffffffffffffffffffffffffff166002600084815260200190815260200160002060009054906101000a900473ffffffffffffffffffffffffffffffffffffffff1673ffffffffffffffffffffffffffffffffffffffff1614159050919050565b600033905090565b816004600083815260200190815260200160002060006101000a81548173ffffffffffffffffffffffffffffffffffffffff021916908373ffffffffffffffffffffffffffffffffffffffff160217905550808273ffffffffffffffffffffffffffffffffffffffff16610e1183610750565b73ffffffffffffffffffffffffffffffffffffffff167f8c5be1e5ebec7d5bd14f71427d1e84f3dd0314c0f7b2291e5b200ac8c7c3b92560405160405180910390a45050565b60008183604051602001610e6c929190612151565b60405160208183030381529060405280519060200120905092915050565b6000610eb7827f000000000000000000000000000000000000000000000000000000000000000085611273565b905092915050565b610ed982826040518060200160405280600081525061134f565b5050565b6000610ee882610d2a565b610f27576040517f08c379a0000000000000000000000000000000000000000000000000000000008152600401610f1e906122bc565b60405180910390fd5b6000610f3283610750565b90508073ffffffffffffffffffffffffffffffffffffffff168473ffffffffffffffffffffffffffffffffffffffff161480610fa157508373ffffffffffffffffffffffffffffffffffffffff16610f8984610490565b73ffffffffffffffffffffffffffffffffffffffff16145b80610fb25750610fb18185610c08565b5b91505092915050565b8273ffffffffffffffffffffffffffffffffffffffff16610fdb82610750565b73ffffffffffffffffffffffffffffffffffffffff1614611031576040517f08c379a00000000000000000000000000000000000000000000000000000000081526004016110289061239c565b60405180910390fd5b600073ffffffffffffffffffffffffffffffffffffffff168273ffffffffffffffffffffffffffffffffffffffff1614156110a1576040517f08c379a00000000000000000000000000000000000000000000000000000000081526004016110989061227c565b60405180910390fd5b6110ac8383836113aa565b6110b7600082610d9e565b6001600360008573ffffffffffffffffffffffffffffffffffffffff1673ffffffffffffffffffffffffffffffffffffffff16815260200190815260200160002060008282546111079190612557565b925050819055506001600360008473ffffffffffffffffffffffffffffffffffffffff1673ffffffffffffffffffffffffffffffffffffffff168152602001908152602001600020600082825461115e91906124d0565b92505081905550816002600083815260200190815260200160002060006101000a81548173ffffffffffffffffffffffffffffffffffffffff021916908373ffffffffffffffffffffffffffffffffffffffff160217905550808273ffffffffffffffffffffffffffffffffffffffff168473ffffffffffffffffffffffffffffffffffffffff167fddf252ad1be2c89b69c2b068fc378daa952ba7f163c4a11628f55a4df523b3ef60405160405180910390a4505050565b611222848484610fbb565b61122e848484846113af565b61126d576040517f08c379a00000000000000000000000000000000000000000000000000000000081526004016112649061223c565b60405180910390fd5b50505050565b60008082905060005b85518110156113415760008682815181106112c0577f4e487b7100000000000000000000000000000000000000000000000000000000600052603260045260246000fd5b602002602001015190508083116113015782816040516020016112e4929190612125565b60405160208183030381529060405280519060200120925061132d565b8083604051602001611314929190612125565b6040516020818303038152906040528051906020012092505b5080806113399061267d565b91505061127c565b508381149150509392505050565b6113598383611546565b61136660008484846113af565b6113a5576040517f08c379a000000000000000000000000000000000000000000000000000000000815260040161139c9061223c565b60405180910390fd5b505050565b505050565b60006113d08473ffffffffffffffffffffffffffffffffffffffff16611714565b15611539578373ffffffffffffffffffffffffffffffffffffffff1663150b7a026113f9610d96565b8786866040518563ffffffff1660e01b815260040161141b9493929190612198565b602060405180830381600087803b15801561143557600080fd5b505af192505050801561146657506040513d601f19601f820116820180604052508101906114639190611a7e565b60015b6114e9573d8060008114611496576040519150601f19603f3d011682016040523d82523d6000602084013e61149b565b606091505b506000815114156114e1576040517f08c379a00000000000000000000000000000000000000000000000000000000081526004016114d89061223c565b60405180910390fd5b805181602001fd5b63150b7a0260e01b7bffffffffffffffffffffffffffffffffffffffffffffffffffffffff1916817bffffffffffffffffffffffffffffffffffffffffffffffffffffffff19161491505061153e565b600190505b949350505050565b600073ffffffffffffffffffffffffffffffffffffffff168273ffffffffffffffffffffffffffffffffffffffff1614156115b6576040517f08c379a00000000000000000000000000000000000000000000000000000000081526004016115ad9061233c565b60405180910390fd5b6115bf81610d2a565b156115ff576040517f08c379a00000000000000000000000000000000000000000000000000000000081526004016115f69061225c565b60405180910390fd5b61160b600083836113aa565b6001600360008473ffffffffffffffffffffffffffffffffffffffff1673ffffffffffffffffffffffffffffffffffffffff168152602001908152602001600020600082825461165b91906124d0565b92505081905550816002600083815260200190815260200160002060006101000a81548173ffffffffffffffffffffffffffffffffffffffff021916908373ffffffffffffffffffffffffffffffffffffffff160217905550808273ffffffffffffffffffffffffffffffffffffffff16600073ffffffffffffffffffffffffffffffffffffffff167fddf252ad1be2c89b69c2b068fc378daa952ba7f163c4a11628f55a4df523b3ef60405160405180910390a45050565b600080823b905060008111915050919050565b600061173a61173584612468565b612437565b90508281526020810184848401111561175257600080fd5b61175d848285612609565b509392505050565b600081359050611774816127d8565b92915050565b60008083601f84011261178c57600080fd5b8235905067ffffffffffffffff8111156117a557600080fd5b6020830191508360208202830111156117bd57600080fd5b9250929050565b6000813590506117d3816127ef565b92915050565b6000813590506117e881612806565b92915050565b6000815190506117fd81612806565b92915050565b600082601f83011261181457600080fd5b8135611824848260208601611727565b91505092915050565b60008135905061183c8161281d565b92915050565b60006020828403121561185457600080fd5b600061186284828501611765565b91505092915050565b6000806040838503121561187e57600080fd5b600061188c85828601611765565b925050602061189d85828601611765565b9150509250929050565b6000806000606084860312156118bc57600080fd5b60006118ca86828701611765565b93505060206118db86828701611765565b92505060406118ec8682870161182d565b9150509250925092565b6000806000806080858703121561190c57600080fd5b600061191a87828801611765565b945050602061192b87828801611765565b935050604061193c8782880161182d565b925050606085013567ffffffffffffffff81111561195957600080fd5b61196587828801611803565b91505092959194509250565b6000806040838503121561198457600080fd5b600061199285828601611765565b92505060206119a3858286016117c4565b9150509250929050565b600080604083850312156119c057600080fd5b60006119ce85828601611765565b92505060206119df8582860161182d565b9150509250929050565b600080600080606085870312156119ff57600080fd5b6000611a0d87828801611765565b9450506020611a1e8782880161182d565b935050604085013567ffffffffffffffff811115611a3b57600080fd5b611a478782880161177a565b925092505092959194509250565b600060208284031215611a6757600080fd5b6000611a75848285016117d9565b91505092915050565b600060208284031215611a9057600080fd5b6000611a9e848285016117ee565b91505092915050565b600060208284031215611ab957600080fd5b6000611ac78482850161182d565b91505092915050565b611ad98161258b565b82525050565b611af0611aeb8261258b565b6126c6565b82525050565b611aff8161259d565b82525050565b611b0e816125a9565b82525050565b611b25611b20826125a9565b6126d8565b82525050565b6000611b3682612498565b611b4081856124ae565b9350611b50818560208601612618565b611b59816127ba565b840191505092915050565b6000611b6f826124a3565b611b7981856124bf565b9350611b89818560208601612618565b611b92816127ba565b840191505092915050565b6000611baa6032836124bf565b91507f4552433732313a207472616e7366657220746f206e6f6e20455243373231526560008301527f63656976657220696d706c656d656e74657200000000000000000000000000006020830152604082019050919050565b6000611c10601c836124bf565b91507f4552433732313a20746f6b656e20616c7265616479206d696e746564000000006000830152602082019050919050565b6000611c506024836124bf565b91507f4552433732313a207472616e7366657220746f20746865207a65726f2061646460008301527f72657373000000000000000000000000000000000000000000000000000000006020830152604082019050919050565b6000611cb66019836124bf565b91507f4552433732313a20617070726f766520746f2063616c6c6572000000000000006000830152602082019050919050565b6000611cf6602c836124bf565b91507f4552433732313a206f70657261746f7220717565727920666f72206e6f6e657860008301527f697374656e7420746f6b656e00000000000000000000000000000000000000006020830152604082019050919050565b6000611d5c6038836124bf565b91507f4552433732313a20617070726f76652063616c6c6572206973206e6f74206f7760008301527f6e6572206e6f7220617070726f76656420666f7220616c6c00000000000000006020830152604082019050919050565b6000611dc2602a836124bf565b91507f4552433732313a2062616c616e636520717565727920666f7220746865207a6560008301527f726f2061646472657373000000000000000000000000000000000000000000006020830152604082019050919050565b6000611e286029836124bf565b91507f4552433732313a206f776e657220717565727920666f72206e6f6e657869737460008301527f656e7420746f6b656e00000000000000000000000000000000000000000000006020830152604082019050919050565b6000611e8e6020836124bf565b91507f4552433732313a206d696e7420746f20746865207a65726f20616464726573736000830152602082019050919050565b6000611ece602c836124bf565b91507f4552433732313a20617070726f76656420717565727920666f72206e6f6e657860008301527f697374656e7420746f6b656e00000000000000000000000000000000000000006020830152604082019050919050565b6000611f346014836124bf565b91507f496e76616c6964206d65726b6c652070726f6f660000000000000000000000006000830152602082019050919050565b6000611f746029836124bf565b91507f4552433732313a207472616e73666572206f6620746f6b656e2074686174206960008301527f73206e6f74206f776e00000000000000000000000000000000000000000000006020830152604082019050919050565b6000611fda602f836124bf565b91507f4552433732314d657461646174613a2055524920717565727920666f72206e6f60008301527f6e6578697374656e7420746f6b656e00000000000000000000000000000000006020830152604082019050919050565b60006120406021836124bf565b91507f4552433732313a20617070726f76616c20746f2063757272656e74206f776e6560008301527f72000000000000000000000000000000000000000000000000000000000000006020830152604082019050919050565b60006120a66031836124bf565b91507f4552433732313a207472616e736665722063616c6c6572206973206e6f74206f60008301527f776e6572206e6f7220617070726f7665640000000000000000000000000000006020830152604082019050919050565b612108816125ff565b82525050565b61211f61211a826125ff565b6126f4565b82525050565b60006121318285611b14565b6020820191506121418284611b14565b6020820191508190509392505050565b600061215d828561210e565b60208201915061216d8284611adf565b6014820191508190509392505050565b60006020820190506121926000830184611ad0565b92915050565b60006080820190506121ad6000830187611ad0565b6121ba6020830186611ad0565b6121c760408301856120ff565b81810360608301526121d98184611b2b565b905095945050505050565b60006020820190506121f96000830184611af6565b92915050565b60006020820190506122146000830184611b05565b92915050565b600060208201905081810360008301526122348184611b64565b905092915050565b6000602082019050818103600083015261225581611b9d565b9050919050565b6000602082019050818103600083015261227581611c03565b9050919050565b6000602082019050818103600083015261229581611c43565b9050919050565b600060208201905081810360008301526122b581611ca9565b9050919050565b600060208201905081810360008301526122d581611ce9565b9050919050565b600060208201905081810360008301526122f581611d4f565b9050919050565b6000602082019050818103600083015261231581611db5565b9050919050565b6000602082019050818103600083015261233581611e1b565b9050919050565b6000602082019050818103600083015261235581611e81565b9050919050565b6000602082019050818103600083015261237581611ec1565b9050919050565b6000602082019050818103600083015261239581611f27565b9050919050565b600060208201905081810360008301526123b581611f67565b9050919050565b600060208201905081810360008301526123d581611fcd565b9050919050565b600060208201905081810360008301526123f581612033565b9050919050565b6000602082019050818103600083015261241581612099565b9050919050565b600060208201905061243160008301846120ff565b92915050565b6000604051905081810181811067ffffffffffffffff8211171561245e5761245d61278b565b5b8060405250919050565b600067ffffffffffffffff8211156124835761248261278b565b5b601f19601f8301169050602081019050919050565b600081519050919050565b600081519050919050565b600082825260208201905092915050565b600082825260208201905092915050565b60006124db826125ff565b91506124e6836125ff565b9250827fffffffffffffffffffffffffffffffffffffffffffffffffffffffffffffffff0382111561251b5761251a6126fe565b5b828201905092915050565b6000612531826125ff565b915061253c836125ff565b92508261254c5761254b61272d565b5b828204905092915050565b6000612562826125ff565b915061256d836125ff565b9250828210156125805761257f6126fe565b5b828203905092915050565b6000612596826125df565b9050919050565b60008115159050919050565b6000819050919050565b60007fffffffff0000000000000000000000000000000000000000000000000000000082169050919050565b600073ffffffffffffffffffffffffffffffffffffffff82169050919050565b6000819050919050565b82818337600083830152505050565b60005b8381101561263657808201518184015260208101905061261b565b83811115612645576000848401525b50505050565b6000600282049050600182168061266357607f821691505b602082108114156126775761267661275c565b5b50919050565b6000612688826125ff565b91507fffffffffffffffffffffffffffffffffffffffffffffffffffffffffffffffff8214156126bb576126ba6126fe565b5b600182019050919050565b60006126d1826126e2565b9050919050565b6000819050919050565b60006126ed826127cb565b9050919050565b6000819050919050565b7f4e487b7100000000000000000000000000000000000000000000000000000000600052601160045260246000fd5b7f4e487b7100000000000000000000000000000000000000000000000000000000600052601260045260246000fd5b7f4e487b7100000000000000000000000000000000000000000000000000000000600052602260045260246000fd5b7f4e487b7100000000000000000000000000000000000000000000000000000000600052604160045260246000fd5b6000601f19601f8301169050919050565b60008160601b9050919050565b6127e18161258b565b81146127ec57600080fd5b50565b6127f88161259d565b811461280357600080fd5b50565b61280f816125b3565b811461281a57600080fd5b50565b612826816125ff565b811461283157600080fd5b5056fe68747470733a2f2f676174657761792e70696e6174612e636c6f75642f697066732f516d55474c4473715267554878526f4e775165544b74394c6d414e726f42353954446a705865735578546656716868747470733a2f2f676174657761792e70696e6174612e636c6f75642f697066732f516d65714a746e63776e3479413746707431505975576a51623353676a797338395173724261765650794a666e41a264697066735822122005a11b50d04d6cdeffd4c0a69bb2026f4a2f1a4830ccdb6b3e274d619a79cdc764736f6c63430008000033",
  "linkReferences": {},
  "deployedLinkReferences": {}
}