{
  "_format": "hh-sol-artifact-1",
  "contractName": "GoldFinchAcademyParticipantNFT",
  "sourceName": "contracts/GoldFinchAcademyParticipantNFT.sol",
  "abi": [
    {
      "inputs": [
        {
          "internalType": "string",
          "name": "name",
          "type": "string"
        },
        {
          "internalType": "string",
          "name": "symbol",
          "type": "string"
        },
        {
          "internalType": "bytes32",
          "name": "merkleroot",
          "type": "bytes32"
        }
      ],
      "stateMutability": "nonpayable",
      "type": "constructor"
    },
    {
      "anonymous": false,
      "inputs": [
        {
          "indexed": true,
          "internalType": "address",
          "name": "owner",
          "type": "address"
        },
        {
          "indexed": true,
          "internalType": "address",
          "name": "approved",
          "type": "address"
        },
        {
          "indexed": true,
          "internalType": "uint256",
          "name": "tokenId",
          "type": "uint256"
        }
      ],
      "name": "Approval",
      "type": "event"
    },
    {
      "anonymous": false,
      "inputs": [
        {
          "indexed": true,
          "internalType": "address",
          "name": "owner",
          "type": "address"
        },
        {
          "indexed": true,
          "internalType": "address",
          "name": "operator",
          "type": "address"
        },
        {
          "indexed": false,
          "internalType": "bool",
          "name": "approved",
          "type": "bool"
        }
      ],
      "name": "ApprovalForAll",
      "type": "event"
    },
    {
      "anonymous": false,
      "inputs": [
        {
          "indexed": true,
          "internalType": "address",
          "name": "from",
          "type": "address"
        },
        {
          "indexed": true,
          "internalType": "address",
          "name": "to",
          "type": "address"
        },
        {
          "indexed": true,
          "internalType": "uint256",
          "name": "tokenId",
          "type": "uint256"
        }
      ],
      "name": "Transfer",
      "type": "event"
    },
    {
      "inputs": [
        {
          "internalType": "address",
          "name": "to",
          "type": "address"
        },
        {
          "internalType": "uint256",
          "name": "tokenId",
          "type": "uint256"
        }
      ],
      "name": "approve",
      "outputs": [],
      "stateMutability": "nonpayable",
      "type": "function"
    },
    {
      "inputs": [
        {
          "internalType": "address",
          "name": "owner",
          "type": "address"
        }
      ],
      "name": "balanceOf",
      "outputs": [
        {
          "internalType": "uint256",
          "name": "",
          "type": "uint256"
        }
      ],
      "stateMutability": "view",
      "type": "function"
    },
    {
      "inputs": [
        {
          "internalType": "uint256",
          "name": "tokenId",
          "type": "uint256"
        }
      ],
      "name": "getApproved",
      "outputs": [
        {
          "internalType": "address",
          "name": "",
          "type": "address"
        }
      ],
      "stateMutability": "view",
      "type": "function"
    },
    {
      "inputs": [
        {
          "internalType": "address",
          "name": "owner",
          "type": "address"
        },
        {
          "internalType": "address",
          "name": "operator",
          "type": "address"
        }
      ],
      "name": "isApprovedForAll",
      "outputs": [
        {
          "internalType": "bool",
          "name": "",
          "type": "bool"
        }
      ],
      "stateMutability": "view",
      "type": "function"
    },
    {
      "inputs": [],
      "name": "name",
      "outputs": [
        {
          "internalType": "string",
          "name": "",
          "type": "string"
        }
      ],
      "stateMutability": "view",
      "type": "function"
    },
    {
      "inputs": [
        {
          "internalType": "uint256",
          "name": "tokenId",
          "type": "uint256"
        }
      ],
      "name": "ownerOf",
      "outputs": [
        {
          "internalType": "address",
          "name": "",
          "type": "address"
        }
      ],
      "stateMutability": "view",
      "type": "function"
    },
    {
      "inputs": [
        {
          "internalType": "address",
          "name": "account",
          "type": "address"
        },
        {
          "internalType": "uint256",
          "name": "tokenId",
          "type": "uint256"
        },
        {
          "internalType": "bytes32[]",
          "name": "proof",
          "type": "bytes32[]"
        }
      ],
      "name": "redeem",
      "outputs": [],
      "stateMutability": "nonpayable",
      "type": "function"
    },
    {
      "inputs": [],
      "name": "root",
      "outputs": [
        {
          "internalType": "bytes32",
          "name": "",
          "type": "bytes32"
        }
      ],
      "stateMutability": "view",
      "type": "function"
    },
    {
      "inputs": [
        {
          "internalType": "address",
          "name": "from",
          "type": "address"
        },
        {
          "internalType": "address",
          "name": "to",
          "type": "address"
        },
        {
          "internalType": "uint256",
          "name": "tokenId",
          "type": "uint256"
        }
      ],
      "name": "safeTransferFrom",
      "outputs": [],
      "stateMutability": "nonpayable",
      "type": "function"
    },
    {
      "inputs": [
        {
          "internalType": "address",
          "name": "from",
          "type": "address"
        },
        {
          "internalType": "address",
          "name": "to",
          "type": "address"
        },
        {
          "internalType": "uint256",
          "name": "tokenId",
          "type": "uint256"
        },
        {
          "internalType": "bytes",
          "name": "_data",
          "type": "bytes"
        }
      ],
      "name": "safeTransferFrom",
      "outputs": [],
      "stateMutability": "nonpayable",
      "type": "function"
    },
    {
      "inputs": [
        {
          "internalType": "address",
          "name": "operator",
          "type": "address"
        },
        {
          "internalType": "bool",
          "name": "approved",
          "type": "bool"
        }
      ],
      "name": "setApprovalForAll",
      "outputs": [],
      "stateMutability": "nonpayable",
      "type": "function"
    },
    {
      "inputs": [
        {
          "internalType": "bytes4",
          "name": "interfaceId",
          "type": "bytes4"
        }
      ],
      "name": "supportsInterface",
      "outputs": [
        {
          "internalType": "bool",
          "name": "",
          "type": "bool"
        }
      ],
      "stateMutability": "view",
      "type": "function"
    },
    {
      "inputs": [],
      "name": "symbol",
      "outputs": [
        {
          "internalType": "string",
          "name": "",
          "type": "string"
        }
      ],
      "stateMutability": "view",
      "type": "function"
    },
    {
      "inputs": [
        {
          "internalType": "uint256",
          "name": "tokenId",
          "type": "uint256"
        }
      ],
      "name": "tokenURI",
      "outputs": [
        {
          "internalType": "string",
          "name": "",
          "type": "string"
        }
      ],
      "stateMutability": "view",
      "type": "function"
    },
    {
      "inputs": [
        {
          "internalType": "address",
          "name": "from",
          "type": "address"
        },
        {
          "internalType": "address",
          "name": "to",
          "type": "address"
        },
        {
          "internalType": "uint256",
          "name": "tokenId",
          "type": "uint256"
        }
      ],
      "name": "transferFrom",
      "outputs": [],
      "stateMutability": "nonpayable",
      "type": "function"
    }
  ],
  "bytecode": "0x60a06040523480156200001157600080fd5b5060405162002d4838038062002d488339818101604052810190620000379190620001b7565b82828160009080519060200190620000519291906200007e565b5080600190805190602001906200006a9291906200007e565b505050806080818152505050505062000394565b8280546200008c90620002e6565b90600052602060002090601f016020900481019282620000b05760008555620000fc565b82601f10620000cb57805160ff1916838001178555620000fc565b82800160010185558215620000fc579182015b82811115620000fb578251825591602001919060010190620000de565b5b5090506200010b91906200010f565b5090565b5b808211156200012a57600081600090555060010162000110565b5090565b6000620001456200013f8462000273565b6200023f565b9050828152602081018484840111156200015e57600080fd5b6200016b848285620002b0565b509392505050565b60008151905062000184816200037a565b92915050565b600082601f8301126200019c57600080fd5b8151620001ae8482602086016200012e565b91505092915050565b600080600060608486031215620001cd57600080fd5b600084015167ffffffffffffffff811115620001e857600080fd5b620001f6868287016200018a565b935050602084015167ffffffffffffffff8111156200021457600080fd5b62000222868287016200018a565b9250506040620002358682870162000173565b9150509250925092565b6000604051905081810181811067ffffffffffffffff821117156200026957620002686200034b565b5b8060405250919050565b600067ffffffffffffffff8211156200029157620002906200034b565b5b601f19601f8301169050602081019050919050565b6000819050919050565b60005b83811015620002d0578082015181840152602081019050620002b3565b83811115620002e0576000848401525b50505050565b60006002820490506001821680620002ff57607f821691505b602082108114156200031657620003156200031c565b5b50919050565b7f4e487b7100000000000000000000000000000000000000000000000000000000600052602260045260246000fd5b7f4e487b7100000000000000000000000000000000000000000000000000000000600052604160045260246000fd5b6200038581620002a6565b81146200039157600080fd5b50565b608051612991620003b760003960008181610cd50152610ec901526129916000f3fe608060405234801561001057600080fd5b50600436106100f55760003560e01c80636352211e11610097578063b88d4fde11610066578063b88d4fde14610282578063c87b56dd1461029e578063e985e9c5146102ce578063ebf0c717146102fe576100f5565b80636352211e146101e857806370a082311461021857806395d89b4114610248578063a22cb46514610266576100f5565b8063095ea7b3116100d3578063095ea7b31461017857806314132f481461019457806323b872dd146101b057806342842e0e146101cc576100f5565b806301ffc9a7146100fa57806306fdde031461012a578063081812fc14610148575b600080fd5b610114600480360381019061010f9190611a8c565b61031c565b604051610121919061221b565b60405180910390f35b6101326103fe565b60405161013f9190612251565b60405180910390f35b610162600480360381019061015d9190611ade565b610490565b60405161016f91906121b4565b60405180910390f35b610192600480360381019061018d91906119e4565b610515565b005b6101ae60048036038101906101a99190611a20565b61062d565b005b6101ca60048036038101906101c591906118de565b6106d0565b005b6101e660048036038101906101e191906118de565b610730565b005b61020260048036038101906101fd9190611ade565b610750565b60405161020f91906121b4565b60405180910390f35b610232600480360381019061022d9190611879565b610802565b60405161023f9190612453565b60405180910390f35b6102506108ba565b60405161025d9190612251565b60405180910390f35b610280600480360381019061027b91906119a8565b61094c565b005b61029c6004803603810190610297919061192d565b610acd565b005b6102b860048036038101906102b39190611ade565b610b2f565b6040516102c59190612251565b60405180910390f35b6102e860048036038101906102e391906118a2565b610c3f565b6040516102f5919061221b565b60405180910390f35b610306610cd3565b6040516103139190612236565b60405180910390f35b60007f80ac58cd000000000000000000000000000000000000000000000000000000007bffffffffffffffffffffffffffffffffffffffffffffffffffffffff1916827bffffffffffffffffffffffffffffffffffffffffffffffffffffffff191614806103e757507f5b5e139f000000000000000000000000000000000000000000000000000000007bffffffffffffffffffffffffffffffffffffffffffffffffffffffff1916827bffffffffffffffffffffffffffffffffffffffffffffffffffffffff1916145b806103f757506103f682610cf7565b5b9050919050565b60606000805461040d90612682565b80601f016020809104026020016040519081016040528092919081815260200182805461043990612682565b80156104865780601f1061045b57610100808354040283529160200191610486565b820191906000526020600020905b81548152906001019060200180831161046957829003601f168201915b5050505050905090565b600061049b82610d61565b6104da576040517f08c379a00000000000000000000000000000000000000000000000000000000081526004016104d190612393565b60405180910390fd5b6004600083815260200190815260200160002060009054906101000a900473ffffffffffffffffffffffffffffffffffffffff169050919050565b600061052082610750565b90508073ffffffffffffffffffffffffffffffffffffffff168373ffffffffffffffffffffffffffffffffffffffff161415610591576040517f08c379a000000000000000000000000000000000000000000000000000000000815260040161058890612413565b60405180910390fd5b8073ffffffffffffffffffffffffffffffffffffffff166105b0610dcd565b73ffffffffffffffffffffffffffffffffffffffff1614806105df57506105de816105d9610dcd565b610c3f565b5b61061e576040517f08c379a000000000000000000000000000000000000000000000000000000000815260040161061590612313565b60405180910390fd5b6106288383610dd5565b505050565b61068161063a8585610e8e565b838380806020026020016040519081016040528093929190818152602001838360200280828437600081840152601f19601f82011690508083019250505050505050610ec1565b6106c0576040517f08c379a00000000000000000000000000000000000000000000000000000000081526004016106b7906123b3565b60405180910390fd5b6106ca8484610ef6565b50505050565b6106e16106db610dcd565b82610f14565b610720576040517f08c379a000000000000000000000000000000000000000000000000000000000815260040161071790612433565b60405180910390fd5b61072b838383610ff2565b505050565b61074b83838360405180602001604052806000815250610acd565b505050565b6000806002600084815260200190815260200160002060009054906101000a900473ffffffffffffffffffffffffffffffffffffffff169050600073ffffffffffffffffffffffffffffffffffffffff168173ffffffffffffffffffffffffffffffffffffffff1614156107f9576040517f08c379a00000000000000000000000000000000000000000000000000000000081526004016107f090612353565b60405180910390fd5b80915050919050565b60008073ffffffffffffffffffffffffffffffffffffffff168273ffffffffffffffffffffffffffffffffffffffff161415610873576040517f08c379a000000000000000000000000000000000000000000000000000000000815260040161086a90612333565b60405180910390fd5b600360008373ffffffffffffffffffffffffffffffffffffffff1673ffffffffffffffffffffffffffffffffffffffff168152602001908152602001600020549050919050565b6060600180546108c990612682565b80601f01602080910402602001604051908101604052809291908181526020018280546108f590612682565b80156109425780601f1061091757610100808354040283529160200191610942565b820191906000526020600020905b81548152906001019060200180831161092557829003601f168201915b5050505050905090565b610954610dcd565b73ffffffffffffffffffffffffffffffffffffffff168273ffffffffffffffffffffffffffffffffffffffff1614156109c2576040517f08c379a00000000000000000000000000000000000000000000000000000000081526004016109b9906122d3565b60405180910390fd5b80600560006109cf610dcd565b73ffffffffffffffffffffffffffffffffffffffff1673ffffffffffffffffffffffffffffffffffffffff16815260200190815260200160002060008473ffffffffffffffffffffffffffffffffffffffff1673ffffffffffffffffffffffffffffffffffffffff16815260200190815260200160002060006101000a81548160ff0219169083151502179055508173ffffffffffffffffffffffffffffffffffffffff16610a7c610dcd565b73ffffffffffffffffffffffffffffffffffffffff167f17307eab39ab6107e8899845ad3d59bd9653f200f220920489ca2b5937696c3183604051610ac1919061221b565b60405180910390a35050565b610ade610ad8610dcd565b83610f14565b610b1d576040517f08c379a0000000000000000000000000000000000000000000000000000000008152600401610b1490612433565b60405180910390fd5b610b298484848461124e565b50505050565b6060610b3a82610d61565b610b79576040517f08c379a0000000000000000000000000000000000000000000000000000000008152600401610b70906123f3565b60405180910390fd5b6001620f424083610b8a919061255d565b1415610bb05760405180608001604052806050815260200161290c605091399050610c3a565b6002620f424083610bc1919061255d565b1415610be7576040518060800160405280605081526020016128bc605091399050610c3a565b6003620f424083610bf8919061255d565b1415610c1e5760405180608001604052806050815260200161286c605091399050610c3a565b60405180608001604052806050815260200161290c6050913990505b919050565b6000600560008473ffffffffffffffffffffffffffffffffffffffff1673ffffffffffffffffffffffffffffffffffffffff16815260200190815260200160002060008373ffffffffffffffffffffffffffffffffffffffff1673ffffffffffffffffffffffffffffffffffffffff16815260200190815260200160002060009054906101000a900460ff16905092915050565b7f000000000000000000000000000000000000000000000000000000000000000081565b60007f01ffc9a7000000000000000000000000000000000000000000000000000000007bffffffffffffffffffffffffffffffffffffffffffffffffffffffff1916827bffffffffffffffffffffffffffffffffffffffffffffffffffffffff1916149050919050565b60008073ffffffffffffffffffffffffffffffffffffffff166002600084815260200190815260200160002060009054906101000a900473ffffffffffffffffffffffffffffffffffffffff1673ffffffffffffffffffffffffffffffffffffffff1614159050919050565b600033905090565b816004600083815260200190815260200160002060006101000a81548173ffffffffffffffffffffffffffffffffffffffff021916908373ffffffffffffffffffffffffffffffffffffffff160217905550808273ffffffffffffffffffffffffffffffffffffffff16610e4883610750565b73ffffffffffffffffffffffffffffffffffffffff167f8c5be1e5ebec7d5bd14f71427d1e84f3dd0314c0f7b2291e5b200ac8c7c3b92560405160405180910390a45050565b60008183604051602001610ea3929190612188565b60405160208183030381529060405280519060200120905092915050565b6000610eee827f0000000000000000000000000000000000000000000000000000000000000000856112aa565b905092915050565b610f10828260405180602001604052806000815250611386565b5050565b6000610f1f82610d61565b610f5e576040517f08c379a0000000000000000000000000000000000000000000000000000000008152600401610f55906122f3565b60405180910390fd5b6000610f6983610750565b90508073ffffffffffffffffffffffffffffffffffffffff168473ffffffffffffffffffffffffffffffffffffffff161480610fd857508373ffffffffffffffffffffffffffffffffffffffff16610fc084610490565b73ffffffffffffffffffffffffffffffffffffffff16145b80610fe95750610fe88185610c3f565b5b91505092915050565b8273ffffffffffffffffffffffffffffffffffffffff1661101282610750565b73ffffffffffffffffffffffffffffffffffffffff1614611068576040517f08c379a000000000000000000000000000000000000000000000000000000000815260040161105f906123d3565b60405180910390fd5b600073ffffffffffffffffffffffffffffffffffffffff168273ffffffffffffffffffffffffffffffffffffffff1614156110d8576040517f08c379a00000000000000000000000000000000000000000000000000000000081526004016110cf906122b3565b60405180910390fd5b6110e38383836113e1565b6110ee600082610dd5565b6001600360008573ffffffffffffffffffffffffffffffffffffffff1673ffffffffffffffffffffffffffffffffffffffff168152602001908152602001600020600082825461113e919061258e565b925050819055506001600360008473ffffffffffffffffffffffffffffffffffffffff1673ffffffffffffffffffffffffffffffffffffffff16815260200190815260200160002060008282546111959190612507565b92505081905550816002600083815260200190815260200160002060006101000a81548173ffffffffffffffffffffffffffffffffffffffff021916908373ffffffffffffffffffffffffffffffffffffffff160217905550808273ffffffffffffffffffffffffffffffffffffffff168473ffffffffffffffffffffffffffffffffffffffff167fddf252ad1be2c89b69c2b068fc378daa952ba7f163c4a11628f55a4df523b3ef60405160405180910390a4505050565b611259848484610ff2565b611265848484846113e6565b6112a4576040517f08c379a000000000000000000000000000000000000000000000000000000000815260040161129b90612273565b60405180910390fd5b50505050565b60008082905060005b85518110156113785760008682815181106112f7577f4e487b7100000000000000000000000000000000000000000000000000000000600052603260045260246000fd5b6020026020010151905080831161133857828160405160200161131b92919061215c565b604051602081830303815290604052805190602001209250611364565b808360405160200161134b92919061215c565b6040516020818303038152906040528051906020012092505b508080611370906126b4565b9150506112b3565b508381149150509392505050565b611390838361157d565b61139d60008484846113e6565b6113dc576040517f08c379a00000000000000000000000000000000000000000000000000000000081526004016113d390612273565b60405180910390fd5b505050565b505050565b60006114078473ffffffffffffffffffffffffffffffffffffffff1661174b565b15611570578373ffffffffffffffffffffffffffffffffffffffff1663150b7a02611430610dcd565b8786866040518563ffffffff1660e01b815260040161145294939291906121cf565b602060405180830381600087803b15801561146c57600080fd5b505af192505050801561149d57506040513d601f19601f8201168201806040525081019061149a9190611ab5565b60015b611520573d80600081146114cd576040519150601f19603f3d011682016040523d82523d6000602084013e6114d2565b606091505b50600081511415611518576040517f08c379a000000000000000000000000000000000000000000000000000000000815260040161150f90612273565b60405180910390fd5b805181602001fd5b63150b7a0260e01b7bffffffffffffffffffffffffffffffffffffffffffffffffffffffff1916817bffffffffffffffffffffffffffffffffffffffffffffffffffffffff191614915050611575565b600190505b949350505050565b600073ffffffffffffffffffffffffffffffffffffffff168273ffffffffffffffffffffffffffffffffffffffff1614156115ed576040517f08c379a00000000000000000000000000000000000000000000000000000000081526004016115e490612373565b60405180910390fd5b6115f681610d61565b15611636576040517f08c379a000000000000000000000000000000000000000000000000000000000815260040161162d90612293565b60405180910390fd5b611642600083836113e1565b6001600360008473ffffffffffffffffffffffffffffffffffffffff1673ffffffffffffffffffffffffffffffffffffffff16815260200190815260200160002060008282546116929190612507565b92505081905550816002600083815260200190815260200160002060006101000a81548173ffffffffffffffffffffffffffffffffffffffff021916908373ffffffffffffffffffffffffffffffffffffffff160217905550808273ffffffffffffffffffffffffffffffffffffffff16600073ffffffffffffffffffffffffffffffffffffffff167fddf252ad1be2c89b69c2b068fc378daa952ba7f163c4a11628f55a4df523b3ef60405160405180910390a45050565b600080823b905060008111915050919050565b600061177161176c8461249f565b61246e565b90508281526020810184848401111561178957600080fd5b611794848285612640565b509392505050565b6000813590506117ab8161280f565b92915050565b60008083601f8401126117c357600080fd5b8235905067ffffffffffffffff8111156117dc57600080fd5b6020830191508360208202830111156117f457600080fd5b9250929050565b60008135905061180a81612826565b92915050565b60008135905061181f8161283d565b92915050565b6000815190506118348161283d565b92915050565b600082601f83011261184b57600080fd5b813561185b84826020860161175e565b91505092915050565b60008135905061187381612854565b92915050565b60006020828403121561188b57600080fd5b60006118998482850161179c565b91505092915050565b600080604083850312156118b557600080fd5b60006118c38582860161179c565b92505060206118d48582860161179c565b9150509250929050565b6000806000606084860312156118f357600080fd5b60006119018682870161179c565b93505060206119128682870161179c565b925050604061192386828701611864565b9150509250925092565b6000806000806080858703121561194357600080fd5b60006119518782880161179c565b94505060206119628782880161179c565b935050604061197387828801611864565b925050606085013567ffffffffffffffff81111561199057600080fd5b61199c8782880161183a565b91505092959194509250565b600080604083850312156119bb57600080fd5b60006119c98582860161179c565b92505060206119da858286016117fb565b9150509250929050565b600080604083850312156119f757600080fd5b6000611a058582860161179c565b9250506020611a1685828601611864565b9150509250929050565b60008060008060608587031215611a3657600080fd5b6000611a448782880161179c565b9450506020611a5587828801611864565b935050604085013567ffffffffffffffff811115611a7257600080fd5b611a7e878288016117b1565b925092505092959194509250565b600060208284031215611a9e57600080fd5b6000611aac84828501611810565b91505092915050565b600060208284031215611ac757600080fd5b6000611ad584828501611825565b91505092915050565b600060208284031215611af057600080fd5b6000611afe84828501611864565b91505092915050565b611b10816125c2565b82525050565b611b27611b22826125c2565b6126fd565b82525050565b611b36816125d4565b82525050565b611b45816125e0565b82525050565b611b5c611b57826125e0565b61270f565b82525050565b6000611b6d826124cf565b611b7781856124e5565b9350611b8781856020860161264f565b611b90816127f1565b840191505092915050565b6000611ba6826124da565b611bb081856124f6565b9350611bc081856020860161264f565b611bc9816127f1565b840191505092915050565b6000611be16032836124f6565b91507f4552433732313a207472616e7366657220746f206e6f6e20455243373231526560008301527f63656976657220696d706c656d656e74657200000000000000000000000000006020830152604082019050919050565b6000611c47601c836124f6565b91507f4552433732313a20746f6b656e20616c7265616479206d696e746564000000006000830152602082019050919050565b6000611c876024836124f6565b91507f4552433732313a207472616e7366657220746f20746865207a65726f2061646460008301527f72657373000000000000000000000000000000000000000000000000000000006020830152604082019050919050565b6000611ced6019836124f6565b91507f4552433732313a20617070726f766520746f2063616c6c6572000000000000006000830152602082019050919050565b6000611d2d602c836124f6565b91507f4552433732313a206f70657261746f7220717565727920666f72206e6f6e657860008301527f697374656e7420746f6b656e00000000000000000000000000000000000000006020830152604082019050919050565b6000611d936038836124f6565b91507f4552433732313a20617070726f76652063616c6c6572206973206e6f74206f7760008301527f6e6572206e6f7220617070726f76656420666f7220616c6c00000000000000006020830152604082019050919050565b6000611df9602a836124f6565b91507f4552433732313a2062616c616e636520717565727920666f7220746865207a6560008301527f726f2061646472657373000000000000000000000000000000000000000000006020830152604082019050919050565b6000611e5f6029836124f6565b91507f4552433732313a206f776e657220717565727920666f72206e6f6e657869737460008301527f656e7420746f6b656e00000000000000000000000000000000000000000000006020830152604082019050919050565b6000611ec56020836124f6565b91507f4552433732313a206d696e7420746f20746865207a65726f20616464726573736000830152602082019050919050565b6000611f05602c836124f6565b91507f4552433732313a20617070726f76656420717565727920666f72206e6f6e657860008301527f697374656e7420746f6b656e00000000000000000000000000000000000000006020830152604082019050919050565b6000611f6b6014836124f6565b91507f496e76616c6964206d65726b6c652070726f6f660000000000000000000000006000830152602082019050919050565b6000611fab6029836124f6565b91507f4552433732313a207472616e73666572206f6620746f6b656e2074686174206960008301527f73206e6f74206f776e00000000000000000000000000000000000000000000006020830152604082019050919050565b6000612011602f836124f6565b91507f4552433732314d657461646174613a2055524920717565727920666f72206e6f60008301527f6e6578697374656e7420746f6b656e00000000000000000000000000000000006020830152604082019050919050565b60006120776021836124f6565b91507f4552433732313a20617070726f76616c20746f2063757272656e74206f776e6560008301527f72000000000000000000000000000000000000000000000000000000000000006020830152604082019050919050565b60006120dd6031836124f6565b91507f4552433732313a207472616e736665722063616c6c6572206973206e6f74206f60008301527f776e6572206e6f7220617070726f7665640000000000000000000000000000006020830152604082019050919050565b61213f81612636565b82525050565b61215661215182612636565b61272b565b82525050565b60006121688285611b4b565b6020820191506121788284611b4b565b6020820191508190509392505050565b60006121948285612145565b6020820191506121a48284611b16565b6014820191508190509392505050565b60006020820190506121c96000830184611b07565b92915050565b60006080820190506121e46000830187611b07565b6121f16020830186611b07565b6121fe6040830185612136565b81810360608301526122108184611b62565b905095945050505050565b60006020820190506122306000830184611b2d565b92915050565b600060208201905061224b6000830184611b3c565b92915050565b6000602082019050818103600083015261226b8184611b9b565b905092915050565b6000602082019050818103600083015261228c81611bd4565b9050919050565b600060208201905081810360008301526122ac81611c3a565b9050919050565b600060208201905081810360008301526122cc81611c7a565b9050919050565b600060208201905081810360008301526122ec81611ce0565b9050919050565b6000602082019050818103600083015261230c81611d20565b9050919050565b6000602082019050818103600083015261232c81611d86565b9050919050565b6000602082019050818103600083015261234c81611dec565b9050919050565b6000602082019050818103600083015261236c81611e52565b9050919050565b6000602082019050818103600083015261238c81611eb8565b9050919050565b600060208201905081810360008301526123ac81611ef8565b9050919050565b600060208201905081810360008301526123cc81611f5e565b9050919050565b600060208201905081810360008301526123ec81611f9e565b9050919050565b6000602082019050818103600083015261240c81612004565b9050919050565b6000602082019050818103600083015261242c8161206a565b9050919050565b6000602082019050818103600083015261244c816120d0565b9050919050565b60006020820190506124686000830184612136565b92915050565b6000604051905081810181811067ffffffffffffffff82111715612495576124946127c2565b5b8060405250919050565b600067ffffffffffffffff8211156124ba576124b96127c2565b5b601f19601f8301169050602081019050919050565b600081519050919050565b600081519050919050565b600082825260208201905092915050565b600082825260208201905092915050565b600061251282612636565b915061251d83612636565b9250827fffffffffffffffffffffffffffffffffffffffffffffffffffffffffffffffff0382111561255257612551612735565b5b828201905092915050565b600061256882612636565b915061257383612636565b92508261258357612582612764565b5b828204905092915050565b600061259982612636565b91506125a483612636565b9250828210156125b7576125b6612735565b5b828203905092915050565b60006125cd82612616565b9050919050565b60008115159050919050565b6000819050919050565b60007fffffffff0000000000000000000000000000000000000000000000000000000082169050919050565b600073ffffffffffffffffffffffffffffffffffffffff82169050919050565b6000819050919050565b82818337600083830152505050565b60005b8381101561266d578082015181840152602081019050612652565b8381111561267c576000848401525b50505050565b6000600282049050600182168061269a57607f821691505b602082108114156126ae576126ad612793565b5b50919050565b60006126bf82612636565b91507fffffffffffffffffffffffffffffffffffffffffffffffffffffffffffffffff8214156126f2576126f1612735565b5b600182019050919050565b600061270882612719565b9050919050565b6000819050919050565b600061272482612802565b9050919050565b6000819050919050565b7f4e487b7100000000000000000000000000000000000000000000000000000000600052601160045260246000fd5b7f4e487b7100000000000000000000000000000000000000000000000000000000600052601260045260246000fd5b7f4e487b7100000000000000000000000000000000000000000000000000000000600052602260045260246000fd5b7f4e487b7100000000000000000000000000000000000000000000000000000000600052604160045260246000fd5b6000601f19601f8301169050919050565b60008160601b9050919050565b612818816125c2565b811461282357600080fd5b50565b61282f816125d4565b811461283a57600080fd5b50565b612846816125ea565b811461285157600080fd5b50565b61285d81612636565b811461286857600080fd5b5056fe68747470733a2f2f676174657761792e70696e6174612e636c6f75642f697066732f516d5a42685154457136647753346b4d424b6e654d51334336675238505a74587833615a4567337579727543737268747470733a2f2f676174657761792e70696e6174612e636c6f75642f697066732f516d5042575448746954396b6959734677644a365844616a4c6a4548447350554a72714a6151314144544374506468747470733a2f2f676174657761792e70696e6174612e636c6f75642f697066732f516d65714a746e63776e3479413746707431505975576a51623353676a797338395173724261765650794a666e41a2646970667358221220a73bacd59d23a9d5ccddbf3259d6c3093ecb0fa47749b3392d2888a474fe5b5464736f6c63430008000033",
  "linkReferences": {},
  "deployedLinkReferences": {}
}